{
  "_format": "hh-sol-artifact-1",
  "contractName": "MyEpicNFT",
  "sourceName": "contracts/MyEpicNFT.sol",
  "abi": [
    {
      "inputs": [],
      "stateMutability": "nonpayable",
      "type": "constructor"
    },
    {
      "anonymous": false,
      "inputs": [
        {
          "indexed": true,
          "internalType": "address",
          "name": "owner",
          "type": "address"
        },
        {
          "indexed": true,
          "internalType": "address",
          "name": "approved",
          "type": "address"
        },
        {
          "indexed": true,
          "internalType": "uint256",
          "name": "tokenId",
          "type": "uint256"
        }
      ],
      "name": "Approval",
      "type": "event"
    },
    {
      "anonymous": false,
      "inputs": [
        {
          "indexed": true,
          "internalType": "address",
          "name": "owner",
          "type": "address"
        },
        {
          "indexed": true,
          "internalType": "address",
          "name": "operator",
          "type": "address"
        },
        {
          "indexed": false,
          "internalType": "bool",
          "name": "approved",
          "type": "bool"
        }
      ],
      "name": "ApprovalForAll",
      "type": "event"
    },
    {
      "anonymous": false,
      "inputs": [
        {
          "indexed": false,
          "internalType": "address",
          "name": "sender",
          "type": "address"
        },
        {
          "indexed": false,
          "internalType": "uint256",
          "name": "tokenId",
          "type": "uint256"
        }
      ],
      "name": "NewEpicNFTMinted",
      "type": "event"
    },
    {
      "anonymous": false,
      "inputs": [
        {
          "indexed": true,
          "internalType": "address",
          "name": "from",
          "type": "address"
        },
        {
          "indexed": true,
          "internalType": "address",
          "name": "to",
          "type": "address"
        },
        {
          "indexed": true,
          "internalType": "uint256",
          "name": "tokenId",
          "type": "uint256"
        }
      ],
      "name": "Transfer",
      "type": "event"
    },
    {
      "inputs": [
        {
          "internalType": "address",
          "name": "to",
          "type": "address"
        },
        {
          "internalType": "uint256",
          "name": "tokenId",
          "type": "uint256"
        }
      ],
      "name": "approve",
      "outputs": [],
      "stateMutability": "nonpayable",
      "type": "function"
    },
    {
      "inputs": [
        {
          "internalType": "address",
          "name": "owner",
          "type": "address"
        }
      ],
      "name": "balanceOf",
      "outputs": [
        {
          "internalType": "uint256",
          "name": "",
          "type": "uint256"
        }
      ],
      "stateMutability": "view",
      "type": "function"
    },
    {
      "inputs": [
        {
          "internalType": "uint256",
          "name": "tokenId",
          "type": "uint256"
        }
      ],
      "name": "getApproved",
      "outputs": [
        {
          "internalType": "address",
          "name": "",
          "type": "address"
        }
      ],
      "stateMutability": "view",
      "type": "function"
    },
    {
      "inputs": [],
      "name": "getTotalNFTsMintedSoFar",
      "outputs": [
        {
          "internalType": "uint256",
          "name": "",
          "type": "uint256"
        }
      ],
      "stateMutability": "view",
      "type": "function"
    },
    {
      "inputs": [
        {
          "internalType": "address",
          "name": "owner",
          "type": "address"
        },
        {
          "internalType": "address",
          "name": "operator",
          "type": "address"
        }
      ],
      "name": "isApprovedForAll",
      "outputs": [
        {
          "internalType": "bool",
          "name": "",
          "type": "bool"
        }
      ],
      "stateMutability": "view",
      "type": "function"
    },
    {
      "inputs": [],
      "name": "makeAnEpicNFT",
      "outputs": [],
      "stateMutability": "nonpayable",
      "type": "function"
    },
    {
      "inputs": [],
      "name": "name",
      "outputs": [
        {
          "internalType": "string",
          "name": "",
          "type": "string"
        }
      ],
      "stateMutability": "view",
      "type": "function"
    },
    {
      "inputs": [
        {
          "internalType": "uint256",
          "name": "tokenId",
          "type": "uint256"
        }
      ],
      "name": "ownerOf",
      "outputs": [
        {
          "internalType": "address",
          "name": "",
          "type": "address"
        }
      ],
      "stateMutability": "view",
      "type": "function"
    },
    {
      "inputs": [
        {
          "internalType": "uint256",
          "name": "tokenId",
          "type": "uint256"
        }
      ],
      "name": "pickRandomFirstWord",
      "outputs": [
        {
          "internalType": "string",
          "name": "",
          "type": "string"
        }
      ],
      "stateMutability": "view",
      "type": "function"
    },
    {
      "inputs": [
        {
          "internalType": "uint256",
          "name": "tokenId",
          "type": "uint256"
        }
      ],
      "name": "pickRandomSecondWord",
      "outputs": [
        {
          "internalType": "string",
          "name": "",
          "type": "string"
        }
      ],
      "stateMutability": "view",
      "type": "function"
    },
    {
      "inputs": [
        {
          "internalType": "uint256",
          "name": "tokenId",
          "type": "uint256"
        }
      ],
      "name": "pickRandomThirdWord",
      "outputs": [
        {
          "internalType": "string",
          "name": "",
          "type": "string"
        }
      ],
      "stateMutability": "view",
      "type": "function"
    },
    {
      "inputs": [
        {
          "internalType": "address",
          "name": "from",
          "type": "address"
        },
        {
          "internalType": "address",
          "name": "to",
          "type": "address"
        },
        {
          "internalType": "uint256",
          "name": "tokenId",
          "type": "uint256"
        }
      ],
      "name": "safeTransferFrom",
      "outputs": [],
      "stateMutability": "nonpayable",
      "type": "function"
    },
    {
      "inputs": [
        {
          "internalType": "address",
          "name": "from",
          "type": "address"
        },
        {
          "internalType": "address",
          "name": "to",
          "type": "address"
        },
        {
          "internalType": "uint256",
          "name": "tokenId",
          "type": "uint256"
        },
        {
          "internalType": "bytes",
          "name": "_data",
          "type": "bytes"
        }
      ],
      "name": "safeTransferFrom",
      "outputs": [],
      "stateMutability": "nonpayable",
      "type": "function"
    },
    {
      "inputs": [
        {
          "internalType": "address",
          "name": "operator",
          "type": "address"
        },
        {
          "internalType": "bool",
          "name": "approved",
          "type": "bool"
        }
      ],
      "name": "setApprovalForAll",
      "outputs": [],
      "stateMutability": "nonpayable",
      "type": "function"
    },
    {
      "inputs": [
        {
          "internalType": "bytes4",
          "name": "interfaceId",
          "type": "bytes4"
        }
      ],
      "name": "supportsInterface",
      "outputs": [
        {
          "internalType": "bool",
          "name": "",
          "type": "bool"
        }
      ],
      "stateMutability": "view",
      "type": "function"
    },
    {
      "inputs": [],
      "name": "symbol",
      "outputs": [
        {
          "internalType": "string",
          "name": "",
          "type": "string"
        }
      ],
      "stateMutability": "view",
      "type": "function"
    },
    {
      "inputs": [
        {
          "internalType": "uint256",
          "name": "tokenId",
          "type": "uint256"
        }
      ],
      "name": "tokenURI",
      "outputs": [
        {
          "internalType": "string",
          "name": "",
          "type": "string"
        }
      ],
      "stateMutability": "view",
      "type": "function"
    },
    {
      "inputs": [
        {
          "internalType": "address",
          "name": "from",
          "type": "address"
        },
        {
          "internalType": "address",
          "name": "to",
          "type": "address"
        },
        {
          "internalType": "uint256",
          "name": "tokenId",
          "type": "uint256"
        }
      ],
      "name": "transferFrom",
      "outputs": [],
      "stateMutability": "nonpayable",
      "type": "function"
    }
  ],
  "bytecode": "0x608060405260405180610160016040528061012f815260200162004b2661012f9139600890805190602001906200003892919062000cba565b50604051806101e001604052806040518060400160405280600381526020017f4e6577000000000000000000000000000000000000000000000000000000000081525081526020016040518060400160405280600581526020017f426c61737400000000000000000000000000000000000000000000000000000081525081526020016040518060400160405280600581526020017f416e696d6500000000000000000000000000000000000000000000000000000081525081526020016040518060400160405280600481526020017f4a6f4a4f0000000000000000000000000000000000000000000000000000000081525081526020016040518060400160405280600781526020017f4769746d6173680000000000000000000000000000000000000000000000000081525081526020016040518060400160405280600281526020017f4a5300000000000000000000000000000000000000000000000000000000000081525081526020016040518060400160405280600481526020017f47726f700000000000000000000000000000000000000000000000000000000081525081526020016040518060400160405280600681526020017f4e6577746f6e000000000000000000000000000000000000000000000000000081525081526020016040518060400160405280600381526020017f4a6f65000000000000000000000000000000000000000000000000000000000081525081526020016040518060400160405280600381526020017f53756e000000000000000000000000000000000000000000000000000000000081525081526020016040518060400160405280600481526020017f4d6f6f6e0000000000000000000000000000000000000000000000000000000081525081526020016040518060400160405280600381526020017f536b79000000000000000000000000000000000000000000000000000000000081525081526020016040518060400160405280600681526020017f507572706c65000000000000000000000000000000000000000000000000000081525081526020016040518060400160405280600581526020017f5461626c6500000000000000000000000000000000000000000000000000000081525081526020016040518060400160405280600581526020017f4368616972000000000000000000000000000000000000000000000000000000815250815250600990600f620003ca92919062000d4b565b50604051806101e001604052806040518060400160405280600381526020017f435353000000000000000000000000000000000000000000000000000000000081525081526020016040518060400160405280600481526020017f48544d4c0000000000000000000000000000000000000000000000000000000081525081526020016040518060400160405280600381526020017f426f6f000000000000000000000000000000000000000000000000000000000081525081526020016040518060400160405280600481526020017f4d494e540000000000000000000000000000000000000000000000000000000081525081526020016040518060400160405280600581526020017f477265656e00000000000000000000000000000000000000000000000000000081525081526020016040518060400160405280600481526020017f426c75650000000000000000000000000000000000000000000000000000000081525081526020016040518060400160405280600481526020017f4c494b450000000000000000000000000000000000000000000000000000000081525081526020016040518060400160405280600481526020017f434f44450000000000000000000000000000000000000000000000000000000081525081526020016040518060400160405280600681526020017f436f66666565000000000000000000000000000000000000000000000000000081525081526020016040518060400160405280600481526020017f43616b650000000000000000000000000000000000000000000000000000000081525081526020016040518060400160405280600781526020017f43757063616b650000000000000000000000000000000000000000000000000081525081526020016040518060400160405280600681526020017f436f6f6b6965000000000000000000000000000000000000000000000000000081525081526020016040518060400160405280600481526020017f43616b650000000000000000000000000000000000000000000000000000000081525081526020016040518060400160405280600781526020017f43757063616b650000000000000000000000000000000000000000000000000081525081526020016040518060400160405280600681526020017f436f6f6b69650000000000000000000000000000000000000000000000000000815250815250600a90600f6200075c92919062000d4b565b50604051806101e001604052806040518060400160405280600481526020017f596f75720000000000000000000000000000000000000000000000000000000081525081526020016040518060400160405280600481526020017f4b696c6c0000000000000000000000000000000000000000000000000000000081525081526020016040518060400160405280600481526020017f42696c6c0000000000000000000000000000000000000000000000000000000081525081526020016040518060400160405280600581526020017f467261756400000000000000000000000000000000000000000000000000000081525081526020016040518060400160405280600581526020017f4c6f6f736500000000000000000000000000000000000000000000000000000081525081526020016040518060400160405280600481526020017f547261700000000000000000000000000000000000000000000000000000000081525081526020016040518060400160405280600681526020017f426c6f61636b000000000000000000000000000000000000000000000000000081525081526020016040518060400160405280600381526020017f4e4654000000000000000000000000000000000000000000000000000000000081525081526020016040518060400160405280600781526020017f476174657761790000000000000000000000000000000000000000000000000081525081526020016040518060400160405280600581526020017f546f6b656e00000000000000000000000000000000000000000000000000000081525081526020016040518060400160405280600481526020017f476174650000000000000000000000000000000000000000000000000000000081525081526020016040518060400160405280600681526020017f5977696e6b79000000000000000000000000000000000000000000000000000081525081526020016040518060400160405280600481526020017f53696e670000000000000000000000000000000000000000000000000000000081525081526020016040518060400160405280600581526020017f44616e636500000000000000000000000000000000000000000000000000000081525081526020016040518060400160405280600681526020017f486f6c6c6f770000000000000000000000000000000000000000000000000000815250815250600b90600f62000aee92919062000d4b565b5034801562000afc57600080fd5b506040518060400160405280600981526020017f5371756172654e465400000000000000000000000000000000000000000000008152506040518060400160405280600681526020017f5351554152450000000000000000000000000000000000000000000000000000815250816000908051906020019062000b8192919062000cba565b50806001908051906020019062000b9a92919062000cba565b50505062000be86040518060400160405280601e81526020017f54686973206973206d79204e465420636f6e74726163742e20576f616821000081525062000bee60201b620011661760201c565b62000f6c565b62000c8e8160405160240162000c05919062000e80565b6040516020818303038152906040527f41304fac000000000000000000000000000000000000000000000000000000007bffffffffffffffffffffffffffffffffffffffffffffffffffffffff19166020820180517bffffffffffffffffffffffffffffffffffffffffffffffffffffffff838183161783525050505062000c9160201b60201c565b50565b60008151905060006a636f6e736f6c652e6c6f679050602083016000808483855afa5050505050565b82805462000cc89062000ef6565b90600052602060002090601f01602090048101928262000cec576000855562000d38565b82601f1062000d0757805160ff191683800117855562000d38565b8280016001018555821562000d38579182015b8281111562000d3757825182559160200191906001019062000d1a565b5b50905062000d47919062000db2565b5090565b82805482825590600052602060002090810192821562000d9f579160200282015b8281111562000d9e57825182908051906020019062000d8d92919062000cba565b509160200191906001019062000d6c565b5b50905062000dae919062000dd1565b5090565b5b8082111562000dcd57600081600090555060010162000db3565b5090565b5b8082111562000df5576000818162000deb919062000df9565b5060010162000dd2565b5090565b50805462000e079062000ef6565b6000825580601f1062000e1b575062000e3c565b601f01602090049060005260206000209081019062000e3b919062000db2565b5b50565b600062000e4c8262000ea4565b62000e58818562000eaf565b935062000e6a81856020860162000ec0565b62000e758162000f5b565b840191505092915050565b6000602082019050818103600083015262000e9c818462000e3f565b905092915050565b600081519050919050565b600082825260208201905092915050565b60005b8381101562000ee057808201518184015260208101905062000ec3565b8381111562000ef0576000848401525b50505050565b6000600282049050600182168062000f0f57607f821691505b6020821081141562000f265762000f2562000f2c565b5b50919050565b7f4e487b7100000000000000000000000000000000000000000000000000000000600052602260045260246000fd5b6000601f19601f8301169050919050565b613baa8062000f7c6000396000f3fe608060405234801561001057600080fd5b50600436106101165760003560e01c806370a08231116100a2578063b88d4fde11610071578063b88d4fde14610305578063c575757a14610321578063c87b56dd14610351578063de9d132f14610381578063e985e9c51461038b57610116565b806370a082311461026b57806395d89b411461029b578063a22cb465146102b9578063b187301f146102d557610116565b8063095ea7b3116100e9578063095ea7b3146101b757806323b872dd146101d35780632de38d68146101ef57806342842e0e1461021f5780636352211e1461023b57610116565b806301ffc9a71461011b578063060475901461014b57806306fdde0314610169578063081812fc14610187575b600080fd5b61013560048036038101906101309190612592565b6103bb565b6040516101429190612d04565b60405180910390f35b61015361049d565b6040516101609190612f9f565b60405180910390f35b6101716104ba565b60405161017e9190612d1f565b60405180910390f35b6101a1600480360381019061019c91906125e4565b61054c565b6040516101ae9190612c74565b60405180910390f35b6101d160048036038101906101cc9190612556565b6105d1565b005b6101ed60048036038101906101e89190612450565b6106e9565b005b610209600480360381019061020491906125e4565b610749565b6040516102169190612d1f565b60405180910390f35b61023960048036038101906102349190612450565b610867565b005b610255600480360381019061025091906125e4565b610887565b6040516102629190612c74565b60405180910390f35b610285600480360381019061028091906123eb565b610939565b6040516102929190612f9f565b60405180910390f35b6102a36109f1565b6040516102b09190612d1f565b60405180910390f35b6102d360048036038101906102ce919061251a565b610a83565b005b6102ef60048036038101906102ea91906125e4565b610a99565b6040516102fc9190612d1f565b60405180910390f35b61031f600480360381019061031a919061249f565b610bb7565b005b61033b600480360381019061033691906125e4565b610c19565b6040516103489190612d1f565b60405180910390f35b61036b600480360381019061036691906125e4565b610d37565b6040516103789190612d1f565b60405180910390f35b610389610e89565b005b6103a560048036038101906103a09190612414565b6110d2565b6040516103b29190612d04565b60405180910390f35b60007f80ac58cd000000000000000000000000000000000000000000000000000000007bffffffffffffffffffffffffffffffffffffffffffffffffffffffff1916827bffffffffffffffffffffffffffffffffffffffffffffffffffffffff1916148061048657507f5b5e139f000000000000000000000000000000000000000000000000000000007bffffffffffffffffffffffffffffffffffffffffffffffffffffffff1916827bffffffffffffffffffffffffffffffffffffffffffffffffffffffff1916145b806104965750610495826111ff565b5b9050919050565b600060016104ab6007611269565b6104b59190613068565b905090565b6060600080546104c990613233565b80601f01602080910402602001604051908101604052809291908181526020018280546104f590613233565b80156105425780601f1061051757610100808354040283529160200191610542565b820191906000526020600020905b81548152906001019060200180831161052557829003601f168201915b5050505050905090565b600061055782611277565b610596576040517f08c379a000000000000000000000000000000000000000000000000000000000815260040161058d90612eff565b60405180910390fd5b6004600083815260200190815260200160002060009054906101000a900473ffffffffffffffffffffffffffffffffffffffff169050919050565b60006105dc82610887565b90508073ffffffffffffffffffffffffffffffffffffffff168373ffffffffffffffffffffffffffffffffffffffff16141561064d576040517f08c379a000000000000000000000000000000000000000000000000000000000815260040161064490612f5f565b60405180910390fd5b8073ffffffffffffffffffffffffffffffffffffffff1661066c6112e3565b73ffffffffffffffffffffffffffffffffffffffff16148061069b575061069a816106956112e3565b6110d2565b5b6106da576040517f08c379a00000000000000000000000000000000000000000000000000000000081526004016106d190612e3f565b60405180910390fd5b6106e483836112eb565b505050565b6106fa6106f46112e3565b826113a4565b610739576040517f08c379a000000000000000000000000000000000000000000000000000000000815260040161073090612f7f565b60405180910390fd5b610744838383611482565b505050565b6060600061077d610759846116e9565b6040516020016107699190612c30565b604051602081830303815290604052611896565b90506009805490508161079091906132df565b9050600981815481106107cc577f4e487b7100000000000000000000000000000000000000000000000000000000600052603260045260246000fd5b9060005260206000200180546107e190613233565b80601f016020809104026020016040519081016040528092919081815260200182805461080d90613233565b801561085a5780601f1061082f5761010080835404028352916020019161085a565b820191906000526020600020905b81548152906001019060200180831161083d57829003601f168201915b5050505050915050919050565b61088283838360405180602001604052806000815250610bb7565b505050565b6000806002600084815260200190815260200160002060009054906101000a900473ffffffffffffffffffffffffffffffffffffffff169050600073ffffffffffffffffffffffffffffffffffffffff168173ffffffffffffffffffffffffffffffffffffffff161415610930576040517f08c379a000000000000000000000000000000000000000000000000000000000815260040161092790612e7f565b60405180910390fd5b80915050919050565b60008073ffffffffffffffffffffffffffffffffffffffff168273ffffffffffffffffffffffffffffffffffffffff1614156109aa576040517f08c379a00000000000000000000000000000000000000000000000000000000081526004016109a190612e5f565b60405180910390fd5b600360008373ffffffffffffffffffffffffffffffffffffffff1673ffffffffffffffffffffffffffffffffffffffff168152602001908152602001600020549050919050565b606060018054610a0090613233565b80601f0160208091040260200160405190810160405280929190818152602001828054610a2c90613233565b8015610a795780601f10610a4e57610100808354040283529160200191610a79565b820191906000526020600020905b815481529060010190602001808311610a5c57829003601f168201915b5050505050905090565b610a95610a8e6112e3565b83836118c9565b5050565b60606000610acd610aa9846116e9565b604051602001610ab99190612bc9565b604051602081830303815290604052611896565b9050600a8054905081610ae091906132df565b9050600a8181548110610b1c577f4e487b7100000000000000000000000000000000000000000000000000000000600052603260045260246000fd5b906000526020600020018054610b3190613233565b80601f0160208091040260200160405190810160405280929190818152602001828054610b5d90613233565b8015610baa5780601f10610b7f57610100808354040283529160200191610baa565b820191906000526020600020905b815481529060010190602001808311610b8d57829003601f168201915b5050505050915050919050565b610bc8610bc26112e3565b836113a4565b610c07576040517f08c379a0000000000000000000000000000000000000000000000000000000008152600401610bfe90612f7f565b60405180910390fd5b610c1384848484611a36565b50505050565b60606000610c4d610c29846116e9565b604051602001610c399190612ba7565b604051602081830303815290604052611896565b9050600b8054905081610c6091906132df565b9050600b8181548110610c9c577f4e487b7100000000000000000000000000000000000000000000000000000000600052603260045260246000fd5b906000526020600020018054610cb190613233565b80601f0160208091040260200160405190810160405280929190818152602001828054610cdd90613233565b8015610d2a5780601f10610cff57610100808354040283529160200191610d2a565b820191906000526020600020905b815481529060010190602001808311610d0d57829003601f168201915b5050505050915050919050565b6060610d4282611277565b610d81576040517f08c379a0000000000000000000000000000000000000000000000000000000008152600401610d7890612edf565b60405180910390fd5b6000600660008481526020019081526020016000208054610da190613233565b80601f0160208091040260200160405190810160405280929190818152602001828054610dcd90613233565b8015610e1a5780601f10610def57610100808354040283529160200191610e1a565b820191906000526020600020905b815481529060010190602001808311610dfd57829003601f168201915b505050505090506000610e2b611a92565b9050600081511415610e41578192505050610e84565b600082511115610e76578082604051602001610e5e929190612b01565b60405160208183030381529060405292505050610e84565b610e7f84611aa9565b925050505b919050565b6000610e956007611269565b905060328110610eda576040517f08c379a0000000000000000000000000000000000000000000000000000000008152600401610ed190612f3f565b60405180910390fd5b6000610ee582610749565b90506000610ef283610a99565b90506000610eff84610c19565b90506000838383604051602001610f1893929190612b25565b60405160208183030381529060405290506000600882604051602001610f3f929190612b56565b60405160208183030381529060405290506000610f8483610f5f84611b50565b604051602001610f70929190612beb565b604051602081830303815290604052611b50565b9050600081604051602001610f999190612c52565b6040516020818303038152906040529050610fe86040518060400160405280601581526020017f0a2d2d2d2d2d2d2d2d2d2d2d2d2d2d2d2d2d2d2d2d0000000000000000000000815250611166565b61101081604051602001610ffc9190612b85565b604051602081830303815290604052611166565b61104e6040518060400160405280601581526020017f2d2d2d2d2d2d2d2d2d2d2d2d2d2d2d2d2d2d2d2d0a0000000000000000000000815250611166565b6110583389611d0e565b6110628882611d2c565b61106c6007611da0565b61108f604051806060016040528060258152602001613b10602591398933611db6565b7febb98688741ffa4c7589bf325de30cf7becb63de567842e1ccdb6cb949fdc82c33896040516110c0929190612cdb565b60405180910390a15050505050505050565b6000600560008473ffffffffffffffffffffffffffffffffffffffff1673ffffffffffffffffffffffffffffffffffffffff16815260200190815260200160002060008373ffffffffffffffffffffffffffffffffffffffff1673ffffffffffffffffffffffffffffffffffffffff16815260200190815260200160002060009054906101000a900460ff16905092915050565b6111fc8160405160240161117a9190612d1f565b6040516020818303038152906040527f41304fac000000000000000000000000000000000000000000000000000000007bffffffffffffffffffffffffffffffffffffffffffffffffffffffff19166020820180517bffffffffffffffffffffffffffffffffffffffffffffffffffffffff8381831617835250505050611e55565b50565b60007f01ffc9a7000000000000000000000000000000000000000000000000000000007bffffffffffffffffffffffffffffffffffffffffffffffffffffffff1916827bffffffffffffffffffffffffffffffffffffffffffffffffffffffff1916149050919050565b600081600001549050919050565b60008073ffffffffffffffffffffffffffffffffffffffff166002600084815260200190815260200160002060009054906101000a900473ffffffffffffffffffffffffffffffffffffffff1673ffffffffffffffffffffffffffffffffffffffff1614159050919050565b600033905090565b816004600083815260200190815260200160002060006101000a81548173ffffffffffffffffffffffffffffffffffffffff021916908373ffffffffffffffffffffffffffffffffffffffff160217905550808273ffffffffffffffffffffffffffffffffffffffff1661135e83610887565b73ffffffffffffffffffffffffffffffffffffffff167f8c5be1e5ebec7d5bd14f71427d1e84f3dd0314c0f7b2291e5b200ac8c7c3b92560405160405180910390a45050565b60006113af82611277565b6113ee576040517f08c379a00000000000000000000000000000000000000000000000000000000081526004016113e590612e1f565b60405180910390fd5b60006113f983610887565b90508073ffffffffffffffffffffffffffffffffffffffff168473ffffffffffffffffffffffffffffffffffffffff16148061146857508373ffffffffffffffffffffffffffffffffffffffff166114508461054c565b73ffffffffffffffffffffffffffffffffffffffff16145b80611479575061147881856110d2565b5b91505092915050565b8273ffffffffffffffffffffffffffffffffffffffff166114a282610887565b73ffffffffffffffffffffffffffffffffffffffff16146114f8576040517f08c379a00000000000000000000000000000000000000000000000000000000081526004016114ef90612d9f565b60405180910390fd5b600073ffffffffffffffffffffffffffffffffffffffff168273ffffffffffffffffffffffffffffffffffffffff161415611568576040517f08c379a000000000000000000000000000000000000000000000000000000000815260040161155f90612ddf565b60405180910390fd5b611573838383611e7e565b61157e6000826112eb565b6001600360008573ffffffffffffffffffffffffffffffffffffffff1673ffffffffffffffffffffffffffffffffffffffff16815260200190815260200160002060008282546115ce9190613149565b925050819055506001600360008473ffffffffffffffffffffffffffffffffffffffff1673ffffffffffffffffffffffffffffffffffffffff16815260200190815260200160002060008282546116259190613068565b92505081905550816002600083815260200190815260200160002060006101000a81548173ffffffffffffffffffffffffffffffffffffffff021916908373ffffffffffffffffffffffffffffffffffffffff160217905550808273ffffffffffffffffffffffffffffffffffffffff168473ffffffffffffffffffffffffffffffffffffffff167fddf252ad1be2c89b69c2b068fc378daa952ba7f163c4a11628f55a4df523b3ef60405160405180910390a46116e4838383611e83565b505050565b60606000821415611731576040518060400160405280600181526020017f30000000000000000000000000000000000000000000000000000000000000008152509050611891565b600082905060005b6000821461176357808061174c90613296565b915050600a8261175c91906130be565b9150611739565b60008167ffffffffffffffff8111156117a5577f4e487b7100000000000000000000000000000000000000000000000000000000600052604160045260246000fd5b6040519080825280601f01601f1916602001820160405280156117d75781602001600182028036833780820191505090505b5090505b6000851461188a576001826117f09190613149565b9150600a856117ff91906132df565b603061180b9190613068565b60f81b818381518110611847577f4e487b7100000000000000000000000000000000000000000000000000000000600052603260045260246000fd5b60200101907effffffffffffffffffffffffffffffffffffffffffffffffffffffffffffff1916908160001a905350600a8561188391906130be565b94506117db565b8093505050505b919050565b6000816040516020016118a99190612aea565b6040516020818303038152906040528051906020012060001c9050919050565b8173ffffffffffffffffffffffffffffffffffffffff168373ffffffffffffffffffffffffffffffffffffffff161415611938576040517f08c379a000000000000000000000000000000000000000000000000000000000815260040161192f90612dff565b60405180910390fd5b80600560008573ffffffffffffffffffffffffffffffffffffffff1673ffffffffffffffffffffffffffffffffffffffff16815260200190815260200160002060008473ffffffffffffffffffffffffffffffffffffffff1673ffffffffffffffffffffffffffffffffffffffff16815260200190815260200160002060006101000a81548160ff0219169083151502179055508173ffffffffffffffffffffffffffffffffffffffff168373ffffffffffffffffffffffffffffffffffffffff167f17307eab39ab6107e8899845ad3d59bd9653f200f220920489ca2b5937696c3183604051611a299190612d04565b60405180910390a3505050565b611a41848484611482565b611a4d84848484611e88565b611a8c576040517f08c379a0000000000000000000000000000000000000000000000000000000008152600401611a8390612d7f565b60405180910390fd5b50505050565b606060405180602001604052806000815250905090565b6060611ab482611277565b611af3576040517f08c379a0000000000000000000000000000000000000000000000000000000008152600401611aea90612f1f565b60405180910390fd5b6000611afd611a92565b90506000815111611b1d5760405180602001604052806000815250611b48565b80611b27846116e9565b604051602001611b38929190612b01565b6040516020818303038152906040525b915050919050565b60606000825190506000811415611b795760405180602001604052806000815250915050611d09565b60006003600283611b8a9190613068565b611b9491906130be565b6004611ba091906130ef565b90506000602082611bb19190613068565b67ffffffffffffffff811115611bf0577f4e487b7100000000000000000000000000000000000000000000000000000000600052604160045260246000fd5b6040519080825280601f01601f191660200182016040528015611c225781602001600182028036833780820191505090505b5090506000604051806060016040528060408152602001613b35604091399050600181016020830160005b86811015611cc65760038101905062ffffff818a015116603f8160121c168401518060081b905060ff603f83600c1c1686015116810190508060081b905060ff603f8360061c1686015116810190508060081b905060ff603f831686015116810190508060e01b90508084526004840193505050611c4d565b506003860660018114611ce05760028114611cf057611cfb565b613d3d60f01b6002830352611cfb565b603d60f81b60018303525b508484525050819450505050505b919050565b611d2882826040518060200160405280600081525061201f565b5050565b611d3582611277565b611d74576040517f08c379a0000000000000000000000000000000000000000000000000000000008152600401611d6b90612e9f565b60405180910390fd5b80600660008481526020019081526020016000209080519060200190611d9b929190612277565b505050565b6001816000016000828254019250508190555050565b611e50838383604051602401611dce93929190612d41565b6040516020818303038152906040527fe3849f79000000000000000000000000000000000000000000000000000000007bffffffffffffffffffffffffffffffffffffffffffffffffffffffff19166020820180517bffffffffffffffffffffffffffffffffffffffffffffffffffffffff8381831617835250505050611e55565b505050565b60008151905060006a636f6e736f6c652e6c6f679050602083016000808483855afa5050505050565b505050565b505050565b6000611ea98473ffffffffffffffffffffffffffffffffffffffff1661207a565b15612012578373ffffffffffffffffffffffffffffffffffffffff1663150b7a02611ed26112e3565b8786866040518563ffffffff1660e01b8152600401611ef49493929190612c8f565b602060405180830381600087803b158015611f0e57600080fd5b505af1925050508015611f3f57506040513d601f19601f82011682018060405250810190611f3c91906125bb565b60015b611fc2573d8060008114611f6f576040519150601f19603f3d011682016040523d82523d6000602084013e611f74565b606091505b50600081511415611fba576040517f08c379a0000000000000000000000000000000000000000000000000000000008152600401611fb190612d7f565b60405180910390fd5b805181602001fd5b63150b7a0260e01b7bffffffffffffffffffffffffffffffffffffffffffffffffffffffff1916817bffffffffffffffffffffffffffffffffffffffffffffffffffffffff191614915050612017565b600190505b949350505050565b612029838361209d565b6120366000848484611e88565b612075576040517f08c379a000000000000000000000000000000000000000000000000000000000815260040161206c90612d7f565b60405180910390fd5b505050565b6000808273ffffffffffffffffffffffffffffffffffffffff163b119050919050565b600073ffffffffffffffffffffffffffffffffffffffff168273ffffffffffffffffffffffffffffffffffffffff16141561210d576040517f08c379a000000000000000000000000000000000000000000000000000000000815260040161210490612ebf565b60405180910390fd5b61211681611277565b15612156576040517f08c379a000000000000000000000000000000000000000000000000000000000815260040161214d90612dbf565b60405180910390fd5b61216260008383611e7e565b6001600360008473ffffffffffffffffffffffffffffffffffffffff1673ffffffffffffffffffffffffffffffffffffffff16815260200190815260200160002060008282546121b29190613068565b92505081905550816002600083815260200190815260200160002060006101000a81548173ffffffffffffffffffffffffffffffffffffffff021916908373ffffffffffffffffffffffffffffffffffffffff160217905550808273ffffffffffffffffffffffffffffffffffffffff16600073ffffffffffffffffffffffffffffffffffffffff167fddf252ad1be2c89b69c2b068fc378daa952ba7f163c4a11628f55a4df523b3ef60405160405180910390a461227360008383611e83565b5050565b82805461228390613233565b90600052602060002090601f0160209004810192826122a557600085556122ec565b82601f106122be57805160ff19168380011785556122ec565b828001600101855582156122ec579182015b828111156122eb5782518255916020019190600101906122d0565b5b5090506122f991906122fd565b5090565b5b808211156123165760008160009055506001016122fe565b5090565b600061232d61232884612fdf565b612fba565b90508281526020810184848401111561234557600080fd5b6123508482856131f1565b509392505050565b60008135905061236781613ab3565b92915050565b60008135905061237c81613aca565b92915050565b60008135905061239181613ae1565b92915050565b6000815190506123a681613ae1565b92915050565b600082601f8301126123bd57600080fd5b81356123cd84826020860161231a565b91505092915050565b6000813590506123e581613af8565b92915050565b6000602082840312156123fd57600080fd5b600061240b84828501612358565b91505092915050565b6000806040838503121561242757600080fd5b600061243585828601612358565b925050602061244685828601612358565b9150509250929050565b60008060006060848603121561246557600080fd5b600061247386828701612358565b935050602061248486828701612358565b9250506040612495868287016123d6565b9150509250925092565b600080600080608085870312156124b557600080fd5b60006124c387828801612358565b94505060206124d487828801612358565b93505060406124e5878288016123d6565b925050606085013567ffffffffffffffff81111561250257600080fd5b61250e878288016123ac565b91505092959194509250565b6000806040838503121561252d57600080fd5b600061253b85828601612358565b925050602061254c8582860161236d565b9150509250929050565b6000806040838503121561256957600080fd5b600061257785828601612358565b9250506020612588858286016123d6565b9150509250929050565b6000602082840312156125a457600080fd5b60006125b284828501612382565b91505092915050565b6000602082840312156125cd57600080fd5b60006125db84828501612397565b91505092915050565b6000602082840312156125f657600080fd5b6000612604848285016123d6565b91505092915050565b6126168161317d565b82525050565b6126258161318f565b82525050565b600061263682613025565b612640818561303b565b9350612650818560208601613200565b612659816133cc565b840191505092915050565b600061266f82613030565b612679818561304c565b9350612689818560208601613200565b612692816133cc565b840191505092915050565b60006126a882613030565b6126b2818561305d565b93506126c2818560208601613200565b80840191505092915050565b600081546126db81613233565b6126e5818661305d565b94506001821660008114612700576001811461271157612744565b60ff19831686528186019350612744565b61271a85613010565b60005b8381101561273c5781548189015260018201915060208101905061271d565b838801955050505b50505092915050565b600061275a60258361305d565b9150612765826133dd565b602582019050919050565b600061277d60328361304c565b91506127888261342c565b604082019050919050565b60006127a060258361304c565b91506127ab8261347b565b604082019050919050565b60006127c3601c8361304c565b91506127ce826134ca565b602082019050919050565b60006127e6600a8361305d565b91506127f1826134f3565b600a82019050919050565b600061280960248361304c565b91506128148261351c565b604082019050919050565b600061282c60198361304c565b91506128378261356b565b602082019050919050565b600061284f60638361305d565b915061285a82613594565b606382019050919050565b6000612872600b8361305d565b915061287d8261362f565b600b82019050919050565b6000612895602c8361304c565b91506128a082613658565b604082019050919050565b60006128b8600d8361305d565b91506128c3826136a7565b600d82019050919050565b60006128db60388361304c565b91506128e6826136d0565b604082019050919050565b60006128fe602a8361304c565b91506129098261371f565b604082019050919050565b600061292160298361304c565b915061292c8261376e565b604082019050919050565b6000612944602e8361304c565b915061294f826137bd565b604082019050919050565b600061296760028361305d565b91506129728261380c565b600282019050919050565b600061298a60208361304c565b915061299582613835565b602082019050919050565b60006129ad60318361304c565b91506129b88261385e565b604082019050919050565b60006129d0602c8361304c565b91506129db826138ad565b604082019050919050565b60006129f3602f8361304c565b91506129fe826138fc565b604082019050919050565b6000612a1660218361304c565b9150612a218261394b565b604082019050919050565b6000612a39600a8361305d565b9150612a448261399a565b600a82019050919050565b6000612a5c60218361304c565b9150612a67826139c3565b604082019050919050565b6000612a7f600a8361305d565b9150612a8a82613a12565b600a82019050919050565b6000612aa2601d8361305d565b9150612aad82613a3b565b601d82019050919050565b6000612ac560318361304c565b9150612ad082613a64565b604082019050919050565b612ae4816131e7565b82525050565b6000612af6828461269d565b915081905092915050565b6000612b0d828561269d565b9150612b19828461269d565b91508190509392505050565b6000612b31828661269d565b9150612b3d828561269d565b9150612b49828461269d565b9150819050949350505050565b6000612b6282856126ce565b9150612b6e828461269d565b9150612b79826128ab565b91508190509392505050565b6000612b908261274d565b9150612b9c828461269d565b915081905092915050565b6000612bb2826127d9565b9150612bbe828461269d565b915081905092915050565b6000612bd482612865565b9150612be0828461269d565b915081905092915050565b6000612bf682612a2c565b9150612c02828561269d565b9150612c0d82612842565b9150612c19828461269d565b9150612c248261295a565b91508190509392505050565b6000612c3b82612a72565b9150612c47828461269d565b915081905092915050565b6000612c5d82612a95565b9150612c69828461269d565b915081905092915050565b6000602082019050612c89600083018461260d565b92915050565b6000608082019050612ca4600083018761260d565b612cb1602083018661260d565b612cbe6040830185612adb565b8181036060830152612cd0818461262b565b905095945050505050565b6000604082019050612cf0600083018561260d565b612cfd6020830184612adb565b9392505050565b6000602082019050612d19600083018461261c565b92915050565b60006020820190508181036000830152612d398184612664565b905092915050565b60006060820190508181036000830152612d5b8186612664565b9050612d6a6020830185612adb565b612d77604083018461260d565b949350505050565b60006020820190508181036000830152612d9881612770565b9050919050565b60006020820190508181036000830152612db881612793565b9050919050565b60006020820190508181036000830152612dd8816127b6565b9050919050565b60006020820190508181036000830152612df8816127fc565b9050919050565b60006020820190508181036000830152612e188161281f565b9050919050565b60006020820190508181036000830152612e3881612888565b9050919050565b60006020820190508181036000830152612e58816128ce565b9050919050565b60006020820190508181036000830152612e78816128f1565b9050919050565b60006020820190508181036000830152612e9881612914565b9050919050565b60006020820190508181036000830152612eb881612937565b9050919050565b60006020820190508181036000830152612ed88161297d565b9050919050565b60006020820190508181036000830152612ef8816129a0565b9050919050565b60006020820190508181036000830152612f18816129c3565b9050919050565b60006020820190508181036000830152612f38816129e6565b9050919050565b60006020820190508181036000830152612f5881612a09565b9050919050565b60006020820190508181036000830152612f7881612a4f565b9050919050565b60006020820190508181036000830152612f9881612ab8565b9050919050565b6000602082019050612fb46000830184612adb565b92915050565b6000612fc4612fd5565b9050612fd08282613265565b919050565b6000604051905090565b600067ffffffffffffffff821115612ffa57612ff961339d565b5b613003826133cc565b9050602081019050919050565b60008190508160005260206000209050919050565b600081519050919050565b600081519050919050565b600082825260208201905092915050565b600082825260208201905092915050565b600081905092915050565b6000613073826131e7565b915061307e836131e7565b9250827fffffffffffffffffffffffffffffffffffffffffffffffffffffffffffffffff038211156130b3576130b2613310565b5b828201905092915050565b60006130c9826131e7565b91506130d4836131e7565b9250826130e4576130e361333f565b5b828204905092915050565b60006130fa826131e7565b9150613105836131e7565b9250817fffffffffffffffffffffffffffffffffffffffffffffffffffffffffffffffff048311821515161561313e5761313d613310565b5b828202905092915050565b6000613154826131e7565b915061315f836131e7565b92508282101561317257613171613310565b5b828203905092915050565b6000613188826131c7565b9050919050565b60008115159050919050565b60007fffffffff0000000000000000000000000000000000000000000000000000000082169050919050565b600073ffffffffffffffffffffffffffffffffffffffff82169050919050565b6000819050919050565b82818337600083830152505050565b60005b8381101561321e578082015181840152602081019050613203565b8381111561322d576000848401525b50505050565b6000600282049050600182168061324b57607f821691505b6020821081141561325f5761325e61336e565b5b50919050565b61326e826133cc565b810181811067ffffffffffffffff8211171561328d5761328c61339d565b5b80604052505050565b60006132a1826131e7565b91507fffffffffffffffffffffffffffffffffffffffffffffffffffffffffffffffff8214156132d4576132d3613310565b5b600182019050919050565b60006132ea826131e7565b91506132f5836131e7565b9250826133055761330461333f565b5b828206905092915050565b7f4e487b7100000000000000000000000000000000000000000000000000000000600052601160045260246000fd5b7f4e487b7100000000000000000000000000000000000000000000000000000000600052601260045260246000fd5b7f4e487b7100000000000000000000000000000000000000000000000000000000600052602260045260246000fd5b7f4e487b7100000000000000000000000000000000000000000000000000000000600052604160045260246000fd5b6000601f19601f8301169050919050565b7f68747470733a2f2f6e6674707265766965772e30786465762e636f6465732f3f60008201527f636f64653d000000000000000000000000000000000000000000000000000000602082015250565b7f4552433732313a207472616e7366657220746f206e6f6e20455243373231526560008201527f63656976657220696d706c656d656e7465720000000000000000000000000000602082015250565b7f4552433732313a207472616e736665722066726f6d20696e636f72726563742060008201527f6f776e6572000000000000000000000000000000000000000000000000000000602082015250565b7f4552433732313a20746f6b656e20616c7265616479206d696e74656400000000600082015250565b7f54484952445f574f524400000000000000000000000000000000000000000000600082015250565b7f4552433732313a207472616e7366657220746f20746865207a65726f2061646460008201527f7265737300000000000000000000000000000000000000000000000000000000602082015250565b7f4552433732313a20617070726f766520746f2063616c6c657200000000000000600082015250565b7f222c20226465736372697074696f6e223a20224120686967686c79206163636c60008201527f61696d656420636f6c6c656374696f6e206f6620737175617265732e222c202260208201527f696d616765223a2022646174613a696d6167652f7376672b786d6c3b6261736560408201527f36342c0000000000000000000000000000000000000000000000000000000000606082015250565b7f5345434f4e445f574f5244000000000000000000000000000000000000000000600082015250565b7f4552433732313a206f70657261746f7220717565727920666f72206e6f6e657860008201527f697374656e7420746f6b656e0000000000000000000000000000000000000000602082015250565b7f3c2f746578743e3c2f7376673e00000000000000000000000000000000000000600082015250565b7f4552433732313a20617070726f76652063616c6c6572206973206e6f74206f7760008201527f6e6572206e6f7220617070726f76656420666f7220616c6c0000000000000000602082015250565b7f4552433732313a2062616c616e636520717565727920666f7220746865207a6560008201527f726f206164647265737300000000000000000000000000000000000000000000602082015250565b7f4552433732313a206f776e657220717565727920666f72206e6f6e657869737460008201527f656e7420746f6b656e0000000000000000000000000000000000000000000000602082015250565b7f45524337323155524953746f726167653a2055524920736574206f66206e6f6e60008201527f6578697374656e7420746f6b656e000000000000000000000000000000000000602082015250565b7f227d000000000000000000000000000000000000000000000000000000000000600082015250565b7f4552433732313a206d696e7420746f20746865207a65726f2061646472657373600082015250565b7f45524337323155524953746f726167653a2055524920717565727920666f722060008201527f6e6f6e6578697374656e7420746f6b656e000000000000000000000000000000602082015250565b7f4552433732313a20617070726f76656420717565727920666f72206e6f6e657860008201527f697374656e7420746f6b656e0000000000000000000000000000000000000000602082015250565b7f4552433732314d657461646174613a2055524920717565727920666f72206e6f60008201527f6e6578697374656e7420746f6b656e0000000000000000000000000000000000602082015250565b7f546865726520617265206f6e6c79203530206f66207468657365206d696e746560008201527f6400000000000000000000000000000000000000000000000000000000000000602082015250565b7f7b226e616d65223a202200000000000000000000000000000000000000000000600082015250565b7f4552433732313a20617070726f76616c20746f2063757272656e74206f776e6560008201527f7200000000000000000000000000000000000000000000000000000000000000602082015250565b7f46495253545f574f524400000000000000000000000000000000000000000000600082015250565b7f646174613a6170706c69636174696f6e2f6a736f6e3b6261736536342c000000600082015250565b7f4552433732313a207472616e736665722063616c6c6572206973206e6f74206f60008201527f776e6572206e6f7220617070726f766564000000000000000000000000000000602082015250565b613abc8161317d565b8114613ac757600080fd5b50565b613ad38161318f565b8114613ade57600080fd5b50565b613aea8161319b565b8114613af557600080fd5b50565b613b01816131e7565b8114613b0c57600080fd5b5056fe416e204e465420772f20494420257320686173206265656e206d696e74656420746f2025734142434445464748494a4b4c4d4e4f505152535455565758595a6162636465666768696a6b6c6d6e6f707172737475767778797a303132333435363738392b2fa2646970667358221220f8889bc72171a07acf05bc368a88b19b8fecb48b011770f8143be5fab28dbdd964736f6c634300080400333c73766720786d6c6e733d27687474703a2f2f7777772e77332e6f72672f323030302f73766727207072657365727665417370656374526174696f3d27784d696e594d696e206d656574272076696577426f783d273020302033353020333530273e3c7374796c653e2e62617365207b2066696c6c3a2077686974653b20666f6e742d66616d696c793a2073657269663b20666f6e742d73697a653a20323470783b207d3c2f7374796c653e3c726563742077696474683d273130302527206865696768743d2731303025272066696c6c3d27626c61636b27202f3e3c7465787420783d273530252720793d273530252720636c6173733d27626173652720646f6d696e616e742d626173656c696e653d276d6964646c652720746578742d616e63686f723d276d6964646c65273e",
  "linkReferences": {},
  "deployedLinkReferences": {}
}